{
  "_format": "hh-sol-artifact-1",
  "contractName": "dStorage",
  "sourceName": "contracts/dStorage.sol",
  "abi": [
    {
      "inputs": [
        {
          "internalType": "address",
          "name": "user",
          "type": "address"
        },
        {
          "internalType": "string",
          "name": "url",
          "type": "string"
        }
      ],
      "name": "add",
      "outputs": [],
      "stateMutability": "nonpayable",
      "type": "function"
    },
    {
      "inputs": [
        {
          "internalType": "address",
          "name": "user",
          "type": "address"
        }
      ],
      "name": "allowUser",
      "outputs": [],
      "stateMutability": "nonpayable",
      "type": "function"
    },
    {
      "inputs": [],
      "name": "disallowAll",
      "outputs": [],
      "stateMutability": "nonpayable",
      "type": "function"
    },
    {
      "inputs": [
        {
          "internalType": "address",
          "name": "user",
          "type": "address"
        }
      ],
      "name": "displayData",
      "outputs": [
        {
          "internalType": "string[]",
          "name": "",
          "type": "string[]"
        }
      ],
      "stateMutability": "view",
      "type": "function"
    },
    {
      "inputs": [],
      "name": "shareAccess",
      "outputs": [
        {
          "components": [
            {
              "internalType": "address",
              "name": "user",
              "type": "address"
            },
            {
              "internalType": "bool",
              "name": "access",
              "type": "bool"
            }
          ],
          "internalType": "struct dStorage.Access[]",
          "name": "",
          "type": "tuple[]"
        }
      ],
      "stateMutability": "view",
      "type": "function"
    }
  ],
  "bytecode": "0x608060405234801561001057600080fd5b50611521806100206000396000f3fe608060405234801561001057600080fd5b50600436106100575760003560e01c806336d6da551461005c578063771c456f1461007857806394ba3b3f14610094578063bc8bef81146100c4578063f53961dd146100e2575b600080fd5b61007660048036038101906100719190610c60565b6100ec565b005b610092600480360381019061008d9190610cbc565b6101eb565b005b6100ae60048036038101906100a99190610cbc565b6106a3565b6040516100bb9190610e2a565b60405180910390f35b6100cc6108c5565b6040516100d99190610f54565b60405180910390f35b6100ea6109ce565b005b61010081511115610132576040517f08c379a000000000000000000000000000000000000000000000000000000000815260040161012990610fd3565b60405180910390fd5b6000815111610176576040517f08c379a000000000000000000000000000000000000000000000000000000000815260040161016d9061103f565b60405180910390fd5b6000808373ffffffffffffffffffffffffffffffffffffffff1673ffffffffffffffffffffffffffffffffffffffff168152602001908152602001600020819080600181540180825580915050600190039060005260206000200160009091909190915090816101e69190611275565b505050565b8073ffffffffffffffffffffffffffffffffffffffff163373ffffffffffffffffffffffffffffffffffffffff1603610259576040517f08c379a000000000000000000000000000000000000000000000000000000000815260040161025090611393565b60405180910390fd5b60018060003373ffffffffffffffffffffffffffffffffffffffff1673ffffffffffffffffffffffffffffffffffffffff16815260200190815260200160002060008373ffffffffffffffffffffffffffffffffffffffff1673ffffffffffffffffffffffffffffffffffffffff16815260200190815260200160002060006101000a81548160ff021916908315150217905550600360003373ffffffffffffffffffffffffffffffffffffffff1673ffffffffffffffffffffffffffffffffffffffff16815260200190815260200160002060008273ffffffffffffffffffffffffffffffffffffffff1673ffffffffffffffffffffffffffffffffffffffff16815260200190815260200160002060009054906101000a900460ff161561050f5760005b600260003373ffffffffffffffffffffffffffffffffffffffff1673ffffffffffffffffffffffffffffffffffffffff16815260200190815260200160002080549050811015610509578173ffffffffffffffffffffffffffffffffffffffff16600260003373ffffffffffffffffffffffffffffffffffffffff1673ffffffffffffffffffffffffffffffffffffffff1681526020019081526020016000208281548110610431576104306113b3565b5b9060005260206000200160000160009054906101000a900473ffffffffffffffffffffffffffffffffffffffff1673ffffffffffffffffffffffffffffffffffffffff16036104f6576001600260003373ffffffffffffffffffffffffffffffffffffffff1673ffffffffffffffffffffffffffffffffffffffff16815260200190815260200160002082815481106104cd576104cc6113b3565b5b9060005260206000200160000160146101000a81548160ff021916908315150217905550610509565b808061050190611411565b91505061037f565b506106a0565b600260003373ffffffffffffffffffffffffffffffffffffffff1673ffffffffffffffffffffffffffffffffffffffff16815260200190815260200160002060405180604001604052808373ffffffffffffffffffffffffffffffffffffffff168152602001600115158152509080600181540180825580915050600190039060005260206000200160009091909190915060008201518160000160006101000a81548173ffffffffffffffffffffffffffffffffffffffff021916908373ffffffffffffffffffffffffffffffffffffffff16021790555060208201518160000160146101000a81548160ff02191690831515021790555050506001600360003373ffffffffffffffffffffffffffffffffffffffff1673ffffffffffffffffffffffffffffffffffffffff16815260200190815260200160002060008373ffffffffffffffffffffffffffffffffffffffff1673ffffffffffffffffffffffffffffffffffffffff16815260200190815260200160002060006101000a81548160ff0219169083151502179055505b50565b606060003373ffffffffffffffffffffffffffffffffffffffff168373ffffffffffffffffffffffffffffffffffffffff1614806107675750600160008473ffffffffffffffffffffffffffffffffffffffff1673ffffffffffffffffffffffffffffffffffffffff16815260200190815260200160002060003373ffffffffffffffffffffffffffffffffffffffff1673ffffffffffffffffffffffffffffffffffffffff16815260200190815260200160002060009054906101000a900460ff165b90508015610885576000808473ffffffffffffffffffffffffffffffffffffffff1673ffffffffffffffffffffffffffffffffffffffff168152602001908152602001600020805480602002602001604051908101604052809291908181526020016000905b828210156108795783829060005260206000200180546107ec9061108e565b80601f01602080910402602001604051908101604052809291908181526020018280546108189061108e565b80156108655780601f1061083a57610100808354040283529160200191610865565b820191906000526020600020905b81548152906001019060200180831161084857829003601f168201915b5050505050815260200190600101906107cd565b505050509150506108c0565b6040517f08c379a00000000000000000000000000000000000000000000000000000000081526004016108b7906114cb565b60405180910390fd5b919050565b6060600260003373ffffffffffffffffffffffffffffffffffffffff1673ffffffffffffffffffffffffffffffffffffffff168152602001908152602001600020805480602002602001604051908101604052809291908181526020016000905b828210156109c5578382906000526020600020016040518060400160405290816000820160009054906101000a900473ffffffffffffffffffffffffffffffffffffffff1673ffffffffffffffffffffffffffffffffffffffff1673ffffffffffffffffffffffffffffffffffffffff1681526020016000820160149054906101000a900460ff16151515158152505081526020019060010190610926565b50505050905090565b60005b600260003373ffffffffffffffffffffffffffffffffffffffff1673ffffffffffffffffffffffffffffffffffffffff16815260200190815260200160002080549050811015610aa5576000600260003373ffffffffffffffffffffffffffffffffffffffff1673ffffffffffffffffffffffffffffffffffffffff1681526020019081526020016000208281548110610a6e57610a6d6113b3565b5b9060005260206000200160000160146101000a81548160ff0219169083151502179055508080610a9d90611411565b9150506109d1565b50565b6000604051905090565b600080fd5b600080fd5b600073ffffffffffffffffffffffffffffffffffffffff82169050919050565b6000610ae782610abc565b9050919050565b610af781610adc565b8114610b0257600080fd5b50565b600081359050610b1481610aee565b92915050565b600080fd5b600080fd5b6000601f19601f8301169050919050565b7f4e487b7100000000000000000000000000000000000000000000000000000000600052604160045260246000fd5b610b6d82610b24565b810181811067ffffffffffffffff82111715610b8c57610b8b610b35565b5b80604052505050565b6000610b9f610aa8565b9050610bab8282610b64565b919050565b600067ffffffffffffffff821115610bcb57610bca610b35565b5b610bd482610b24565b9050602081019050919050565b82818337600083830152505050565b6000610c03610bfe84610bb0565b610b95565b905082815260208101848484011115610c1f57610c1e610b1f565b5b610c2a848285610be1565b509392505050565b600082601f830112610c4757610c46610b1a565b5b8135610c57848260208601610bf0565b91505092915050565b60008060408385031215610c7757610c76610ab2565b5b6000610c8585828601610b05565b925050602083013567ffffffffffffffff811115610ca657610ca5610ab7565b5b610cb285828601610c32565b9150509250929050565b600060208284031215610cd257610cd1610ab2565b5b6000610ce084828501610b05565b91505092915050565b600081519050919050565b600082825260208201905092915050565b6000819050602082019050919050565b600081519050919050565b600082825260208201905092915050565b60005b83811015610d4f578082015181840152602081019050610d34565b60008484015250505050565b6000610d6682610d15565b610d708185610d20565b9350610d80818560208601610d31565b610d8981610b24565b840191505092915050565b6000610da08383610d5b565b905092915050565b6000602082019050919050565b6000610dc082610ce9565b610dca8185610cf4565b935083602082028501610ddc85610d05565b8060005b85811015610e185784840389528151610df98582610d94565b9450610e0483610da8565b925060208a01995050600181019050610de0565b50829750879550505050505092915050565b60006020820190508181036000830152610e448184610db5565b905092915050565b600081519050919050565b600082825260208201905092915050565b6000819050602082019050919050565b610e8181610adc565b82525050565b60008115159050919050565b610e9c81610e87565b82525050565b604082016000820151610eb86000850182610e78565b506020820151610ecb6020850182610e93565b50505050565b6000610edd8383610ea2565b60408301905092915050565b6000602082019050919050565b6000610f0182610e4c565b610f0b8185610e57565b9350610f1683610e68565b8060005b83811015610f47578151610f2e8882610ed1565b9750610f3983610ee9565b925050600181019050610f1a565b5085935050505092915050565b60006020820190508181036000830152610f6e8184610ef6565b905092915050565b600082825260208201905092915050565b7f55524c20697320746f6f206c6f6e670000000000000000000000000000000000600082015250565b6000610fbd600f83610f76565b9150610fc882610f87565b602082019050919050565b60006020820190508181036000830152610fec81610fb0565b9050919050565b7f55524c2063616e6e6f7420626520656d70747900000000000000000000000000600082015250565b6000611029601383610f76565b915061103482610ff3565b602082019050919050565b600060208201905081810360008301526110588161101c565b9050919050565b7f4e487b7100000000000000000000000000000000000000000000000000000000600052602260045260246000fd5b600060028204905060018216806110a657607f821691505b6020821081036110b9576110b861105f565b5b50919050565b60008190508160005260206000209050919050565b60006020601f8301049050919050565b600082821b905092915050565b6000600883026111217fffffffffffffffffffffffffffffffffffffffffffffffffffffffffffffffff826110e4565b61112b86836110e4565b95508019841693508086168417925050509392505050565b6000819050919050565b6000819050919050565b600061117261116d61116884611143565b61114d565b611143565b9050919050565b6000819050919050565b61118c83611157565b6111a061119882611179565b8484546110f1565b825550505050565b600090565b6111b56111a8565b6111c0818484611183565b505050565b5b818110156111e4576111d96000826111ad565b6001810190506111c6565b5050565b601f821115611229576111fa816110bf565b611203846110d4565b81016020851015611212578190505b61122661121e856110d4565b8301826111c5565b50505b505050565b600082821c905092915050565b600061124c6000198460080261122e565b1980831691505092915050565b6000611265838361123b565b9150826002028217905092915050565b61127e82610d15565b67ffffffffffffffff81111561129757611296610b35565b5b6112a1825461108e565b6112ac8282856111e8565b600060209050601f8311600181146112df57600084156112cd578287015190505b6112d78582611259565b86555061133f565b601f1984166112ed866110bf565b60005b82811015611315578489015182556001820191506020850194506020810190506112f0565b86831015611332578489015161132e601f89168261123b565b8355505b6001600288020188555050505b505050505050565b7f43616e6e6f74206772616e742061636365737320746f20796f757273656c6600600082015250565b600061137d601f83610f76565b915061138882611347565b602082019050919050565b600060208201905081810360008301526113ac81611370565b9050919050565b7f4e487b7100000000000000000000000000000000000000000000000000000000600052603260045260246000fd5b7f4e487b7100000000000000000000000000000000000000000000000000000000600052601160045260246000fd5b600061141c82611143565b91507fffffffffffffffffffffffffffffffffffffffffffffffffffffffffffffffff820361144e5761144d6113e2565b5b600182019050919050565b7f596f7520646f6e277420686176652061636365737320746f207468652064617460008201527f6100000000000000000000000000000000000000000000000000000000000000602082015250565b60006114b5602183610f76565b91506114c082611459565b604082019050919050565b600060208201905081810360008301526114e4816114a8565b905091905056fea2646970667358221220c55b5bd6b9347abdbcfa1de4b3c2701413208c1a1a745a51bdc6eddc44eddea164736f6c63430008120033",
  "linkReferences": {},
  "deployedLinkReferences": {}
}